{
  "_format": "hh-sol-artifact-1",
  "contractName": "BoomKoin",
  "sourceName": "contracts/BoomKoin.sol",
  "abi": [
    {
      "inputs": [],
      "stateMutability": "nonpayable",
      "type": "constructor"
    },
    {
      "anonymous": false,
      "inputs": [
        {
          "indexed": true,
          "internalType": "address",
          "name": "owner",
          "type": "address"
        },
        {
          "indexed": true,
          "internalType": "address",
          "name": "spender",
          "type": "address"
        },
        {
          "indexed": false,
          "internalType": "uint256",
          "name": "value",
          "type": "uint256"
        }
      ],
      "name": "Approval",
      "type": "event"
    },
    {
      "anonymous": false,
      "inputs": [
        {
          "indexed": true,
          "internalType": "address",
          "name": "previousOwner",
          "type": "address"
        },
        {
          "indexed": true,
          "internalType": "address",
          "name": "newOwner",
          "type": "address"
        }
      ],
      "name": "OwnershipTransferred",
      "type": "event"
    },
    {
      "anonymous": false,
      "inputs": [
        {
          "indexed": true,
          "internalType": "address",
          "name": "from",
          "type": "address"
        },
        {
          "indexed": true,
          "internalType": "address",
          "name": "to",
          "type": "address"
        },
        {
          "indexed": false,
          "internalType": "uint256",
          "name": "value",
          "type": "uint256"
        }
      ],
      "name": "Transfer",
      "type": "event"
    },
    {
      "inputs": [],
      "name": "MAXIMUMSUPPLY",
      "outputs": [
        {
          "internalType": "uint256",
          "name": "",
          "type": "uint256"
        }
      ],
      "stateMutability": "view",
      "type": "function"
    },
    {
      "inputs": [
        {
          "internalType": "address",
          "name": "owner",
          "type": "address"
        },
        {
          "internalType": "address",
          "name": "spender",
          "type": "address"
        }
      ],
      "name": "allowance",
      "outputs": [
        {
          "internalType": "uint256",
          "name": "",
          "type": "uint256"
        }
      ],
      "stateMutability": "view",
      "type": "function"
    },
    {
      "inputs": [
        {
          "internalType": "address",
          "name": "spender",
          "type": "address"
        },
        {
          "internalType": "uint256",
          "name": "amount",
          "type": "uint256"
        }
      ],
      "name": "approve",
      "outputs": [
        {
          "internalType": "bool",
          "name": "",
          "type": "bool"
        }
      ],
      "stateMutability": "nonpayable",
      "type": "function"
    },
    {
      "inputs": [
        {
          "internalType": "address",
          "name": "account",
          "type": "address"
        }
      ],
      "name": "balanceOf",
      "outputs": [
        {
          "internalType": "uint256",
          "name": "",
          "type": "uint256"
        }
      ],
      "stateMutability": "view",
      "type": "function"
    },
    {
      "inputs": [
        {
          "internalType": "uint256",
          "name": "amount",
          "type": "uint256"
        }
      ],
      "name": "burn",
      "outputs": [],
      "stateMutability": "nonpayable",
      "type": "function"
    },
    {
      "inputs": [
        {
          "internalType": "address",
          "name": "account",
          "type": "address"
        },
        {
          "internalType": "uint256",
          "name": "amount",
          "type": "uint256"
        }
      ],
      "name": "burnFrom",
      "outputs": [],
      "stateMutability": "nonpayable",
      "type": "function"
    },
    {
      "inputs": [],
      "name": "decimals",
      "outputs": [
        {
          "internalType": "uint8",
          "name": "",
          "type": "uint8"
        }
      ],
      "stateMutability": "view",
      "type": "function"
    },
    {
      "inputs": [
        {
          "internalType": "address",
          "name": "spender",
          "type": "address"
        },
        {
          "internalType": "uint256",
          "name": "subtractedValue",
          "type": "uint256"
        }
      ],
      "name": "decreaseAllowance",
      "outputs": [
        {
          "internalType": "bool",
          "name": "",
          "type": "bool"
        }
      ],
      "stateMutability": "nonpayable",
      "type": "function"
    },
    {
      "inputs": [],
      "name": "getMaxSupply",
      "outputs": [
        {
          "internalType": "uint256",
          "name": "",
          "type": "uint256"
        }
      ],
      "stateMutability": "view",
      "type": "function"
    },
    {
      "inputs": [
        {
          "internalType": "address",
          "name": "spender",
          "type": "address"
        },
        {
          "internalType": "uint256",
          "name": "addedValue",
          "type": "uint256"
        }
      ],
      "name": "increaseAllowance",
      "outputs": [
        {
          "internalType": "bool",
          "name": "",
          "type": "bool"
        }
      ],
      "stateMutability": "nonpayable",
      "type": "function"
    },
    {
      "inputs": [
        {
          "internalType": "address",
          "name": "to",
          "type": "address"
        },
        {
          "internalType": "uint256",
          "name": "amount",
          "type": "uint256"
        }
      ],
      "name": "mint",
      "outputs": [],
      "stateMutability": "nonpayable",
      "type": "function"
    },
    {
      "inputs": [],
      "name": "name",
      "outputs": [
        {
          "internalType": "string",
          "name": "",
          "type": "string"
        }
      ],
      "stateMutability": "view",
      "type": "function"
    },
    {
      "inputs": [],
      "name": "owner",
      "outputs": [
        {
          "internalType": "address",
          "name": "",
          "type": "address"
        }
      ],
      "stateMutability": "view",
      "type": "function"
    },
    {
      "inputs": [
        {
          "internalType": "bool",
          "name": "_state",
          "type": "bool"
        }
      ],
      "name": "pause",
      "outputs": [],
      "stateMutability": "nonpayable",
      "type": "function"
    },
    {
      "inputs": [],
      "name": "paused",
      "outputs": [
        {
          "internalType": "bool",
          "name": "",
          "type": "bool"
        }
      ],
      "stateMutability": "view",
      "type": "function"
    },
    {
      "inputs": [],
      "name": "renounceOwnership",
      "outputs": [],
      "stateMutability": "nonpayable",
      "type": "function"
    },
    {
      "inputs": [
        {
          "internalType": "uint256",
          "name": "_newCap",
          "type": "uint256"
        }
      ],
      "name": "setMaxSupply",
      "outputs": [],
      "stateMutability": "nonpayable",
      "type": "function"
    },
    {
      "inputs": [],
      "name": "symbol",
      "outputs": [
        {
          "internalType": "string",
          "name": "",
          "type": "string"
        }
      ],
      "stateMutability": "view",
      "type": "function"
    },
    {
      "inputs": [],
      "name": "totalSupply",
      "outputs": [
        {
          "internalType": "uint256",
          "name": "",
          "type": "uint256"
        }
      ],
      "stateMutability": "view",
      "type": "function"
    },
    {
      "inputs": [
        {
          "internalType": "address",
          "name": "to",
          "type": "address"
        },
        {
          "internalType": "uint256",
          "name": "amount",
          "type": "uint256"
        }
      ],
      "name": "transfer",
      "outputs": [
        {
          "internalType": "bool",
          "name": "",
          "type": "bool"
        }
      ],
      "stateMutability": "nonpayable",
      "type": "function"
    },
    {
      "inputs": [
        {
          "internalType": "address",
          "name": "from",
          "type": "address"
        },
        {
          "internalType": "address",
          "name": "to",
          "type": "address"
        },
        {
          "internalType": "uint256",
          "name": "amount",
          "type": "uint256"
        }
      ],
      "name": "transferFrom",
      "outputs": [
        {
          "internalType": "bool",
          "name": "",
          "type": "bool"
        }
      ],
      "stateMutability": "nonpayable",
      "type": "function"
    },
    {
      "inputs": [
        {
          "internalType": "address",
          "name": "newOwner",
          "type": "address"
        }
      ],
      "name": "transferOwnership",
      "outputs": [],
      "stateMutability": "nonpayable",
      "type": "function"
    }
  ],
  "bytecode": "0x6080604052670de0b6b3a7640000600855600854620f423f6200002391906200051d565b6009556000600a60006101000a81548160ff0219169083151502179055503480156200004e57600080fd5b506040518060400160405280600881526020017f426f6f6d4b6f696e0000000000000000000000000000000000000000000000008152506040518060400160405280600381526020017f424d4b00000000000000000000000000000000000000000000000000000000008152508160039080519060200190620000d392919062000388565b508060049080519060200190620000ec92919062000388565b5050506200010f620001036200013760201b60201c565b6200013f60201b60201c565b620001313360085460016200012591906200051d565b6200020560201b60201c565b62000645565b600033905090565b6000600560009054906101000a900473ffffffffffffffffffffffffffffffffffffffff16905081600560006101000a81548173ffffffffffffffffffffffffffffffffffffffff021916908373ffffffffffffffffffffffffffffffffffffffff1602179055508173ffffffffffffffffffffffffffffffffffffffff168173ffffffffffffffffffffffffffffffffffffffff167f8be0079c531659141344cd1fd0a4f28419497f9722a3daafe3b4186f6b6457e060405160405180910390a35050565b600073ffffffffffffffffffffffffffffffffffffffff168273ffffffffffffffffffffffffffffffffffffffff16141562000278576040517f08c379a00000000000000000000000000000000000000000000000000000000081526004016200026f9062000470565b60405180910390fd5b6200028c600083836200037e60201b60201c565b8060026000828254620002a09190620004c0565b92505081905550806000808473ffffffffffffffffffffffffffffffffffffffff1673ffffffffffffffffffffffffffffffffffffffff1681526020019081526020016000206000828254620002f79190620004c0565b925050819055508173ffffffffffffffffffffffffffffffffffffffff16600073ffffffffffffffffffffffffffffffffffffffff167fddf252ad1be2c89b69c2b068fc378daa952ba7f163c4a11628f55a4df523b3ef836040516200035e919062000492565b60405180910390a36200037a600083836200038360201b60201c565b5050565b505050565b505050565b828054620003969062000588565b90600052602060002090601f016020900481019282620003ba576000855562000406565b82601f10620003d557805160ff191683800117855562000406565b8280016001018555821562000406579182015b8281111562000405578251825591602001919060010190620003e8565b5b50905062000415919062000419565b5090565b5b80821115620004345760008160009055506001016200041a565b5090565b600062000447601f83620004af565b915062000454826200061c565b602082019050919050565b6200046a816200057e565b82525050565b600060208201905081810360008301526200048b8162000438565b9050919050565b6000602082019050620004a960008301846200045f565b92915050565b600082825260208201905092915050565b6000620004cd826200057e565b9150620004da836200057e565b9250827fffffffffffffffffffffffffffffffffffffffffffffffffffffffffffffffff03821115620005125762000511620005be565b5b828201905092915050565b60006200052a826200057e565b915062000537836200057e565b9250817fffffffffffffffffffffffffffffffffffffffffffffffffffffffffffffffff0483118215151615620005735762000572620005be565b5b828202905092915050565b6000819050919050565b60006002820490506001821680620005a157607f821691505b60208210811415620005b857620005b7620005ed565b5b50919050565b7f4e487b7100000000000000000000000000000000000000000000000000000000600052601160045260246000fd5b7f4e487b7100000000000000000000000000000000000000000000000000000000600052602260045260246000fd5b7f45524332303a206d696e7420746f20746865207a65726f206164647265737300600082015250565b61206780620006556000396000f3fe608060405234801561001057600080fd5b50600436106101425760003560e01c80635c975abb116100b85780638da5cb5b1161007c5780638da5cb5b1461035157806395d89b411461036f578063a457c2d71461038d578063a9059cbb146103bd578063dd62ed3e146103ed578063f2fde38b1461041d57610142565b80635c975abb146102c15780636f8b44b0146102df57806370a08231146102fb578063715018a61461032b57806379cc67901461033557610142565b8063313ce5671161010a578063313ce567146101ff578063395093511461021d57806340c10f191461024d57806342966c68146102695780634c0f38c2146102855780634fb2ed6b146102a357610142565b806302329a291461014757806306fdde0314610163578063095ea7b31461018157806318160ddd146101b157806323b872dd146101cf575b600080fd5b610161600480360381019061015c9190611530565b610439565b005b61016b61045e565b6040516101789190611817565b60405180910390f35b61019b600480360381019061019691906114f4565b6104f0565b6040516101a891906117fc565b60405180910390f35b6101b9610513565b6040516101c691906119f9565b60405180910390f35b6101e960048036038101906101e491906114a5565b61051d565b6040516101f691906117fc565b60405180910390f35b61020761054c565b6040516102149190611a14565b60405180910390f35b610237600480360381019061023291906114f4565b610555565b60405161024491906117fc565b60405180910390f35b610267600480360381019061026291906114f4565b61058c565b005b610283600480360381019061027e9190611559565b6106fa565b005b61028d61070e565b60405161029a91906119f9565b60405180910390f35b6102ab610718565b6040516102b891906119f9565b60405180910390f35b6102c961071e565b6040516102d691906117fc565b60405180910390f35b6102f960048036038101906102f49190611559565b610731565b005b61031560048036038101906103109190611440565b610750565b60405161032291906119f9565b60405180910390f35b610333610798565b005b61034f600480360381019061034a91906114f4565b6107ac565b005b610359610805565b60405161036691906117e1565b60405180910390f35b61037761082f565b6040516103849190611817565b60405180910390f35b6103a760048036038101906103a291906114f4565b6108c1565b6040516103b491906117fc565b60405180910390f35b6103d760048036038101906103d291906114f4565b610938565b6040516103e491906117fc565b60405180910390f35b61040760048036038101906104029190611469565b61095b565b60405161041491906119f9565b60405180910390f35b61043760048036038101906104329190611440565b6109e2565b005b610441610a66565b80600a60006101000a81548160ff02191690831515021790555050565b60606003805461046d90611bb7565b80601f016020809104026020016040519081016040528092919081815260200182805461049990611bb7565b80156104e65780601f106104bb576101008083540402835291602001916104e6565b820191906000526020600020905b8154815290600101906020018083116104c957829003601f168201915b5050505050905090565b6000806104fb610ae4565b9050610508818585610aec565b600191505092915050565b6000600754905090565b600080610528610ae4565b9050610535858285610cb7565b610540858585610d43565b60019150509392505050565b60006012905090565b600080610560610ae4565b9050610581818585610572858961095b565b61057c9190611a4b565b610aec565b600191505092915050565b610594610a66565b60001515600a60009054906101000a900460ff161515146105ea576040517f08c379a00000000000000000000000000000000000000000000000000000000081526004016105e190611999565b60405180910390fd5b600954816007546105fb9190611a4b565b111561063c576040517f08c379a0000000000000000000000000000000000000000000000000000000008152600401610633906118f9565b60405180910390fd5b61065181600754610fc490919063ffffffff16565b6007819055506106a981600660008573ffffffffffffffffffffffffffffffffffffffff1673ffffffffffffffffffffffffffffffffffffffff16815260200190815260200160002054610fc490919063ffffffff16565b600660008473ffffffffffffffffffffffffffffffffffffffff1673ffffffffffffffffffffffffffffffffffffffff168152602001908152602001600020819055506106f68282610fda565b5050565b61070b610705610ae4565b8261113a565b50565b6000600954905090565b60095481565b600a60009054906101000a900460ff1681565b610739610a66565b600854816107479190611aa1565b60098190555050565b60008060008373ffffffffffffffffffffffffffffffffffffffff1673ffffffffffffffffffffffffffffffffffffffff168152602001908152602001600020549050919050565b6107a0610a66565b6107aa6000611311565b565b6107b4610805565b73ffffffffffffffffffffffffffffffffffffffff163373ffffffffffffffffffffffffffffffffffffffff1614156107f6576107f1828261113a565b610801565b61080082826113d7565b5b5050565b6000600560009054906101000a900473ffffffffffffffffffffffffffffffffffffffff16905090565b60606004805461083e90611bb7565b80601f016020809104026020016040519081016040528092919081815260200182805461086a90611bb7565b80156108b75780601f1061088c576101008083540402835291602001916108b7565b820191906000526020600020905b81548152906001019060200180831161089a57829003601f168201915b5050505050905090565b6000806108cc610ae4565b905060006108da828661095b565b90508381101561091f576040517f08c379a0000000000000000000000000000000000000000000000000000000008152600401610916906119b9565b60405180910390fd5b61092c8286868403610aec565b60019250505092915050565b600080610943610ae4565b9050610950818585610d43565b600191505092915050565b6000600160008473ffffffffffffffffffffffffffffffffffffffff1673ffffffffffffffffffffffffffffffffffffffff16815260200190815260200160002060008373ffffffffffffffffffffffffffffffffffffffff1673ffffffffffffffffffffffffffffffffffffffff16815260200190815260200160002054905092915050565b6109ea610a66565b600073ffffffffffffffffffffffffffffffffffffffff168173ffffffffffffffffffffffffffffffffffffffff161415610a5a576040517f08c379a0000000000000000000000000000000000000000000000000000000008152600401610a5190611879565b60405180910390fd5b610a6381611311565b50565b610a6e610ae4565b73ffffffffffffffffffffffffffffffffffffffff16610a8c610805565b73ffffffffffffffffffffffffffffffffffffffff1614610ae2576040517f08c379a0000000000000000000000000000000000000000000000000000000008152600401610ad990611919565b60405180910390fd5b565b600033905090565b600073ffffffffffffffffffffffffffffffffffffffff168373ffffffffffffffffffffffffffffffffffffffff161415610b5c576040517f08c379a0000000000000000000000000000000000000000000000000000000008152600401610b5390611979565b60405180910390fd5b600073ffffffffffffffffffffffffffffffffffffffff168273ffffffffffffffffffffffffffffffffffffffff161415610bcc576040517f08c379a0000000000000000000000000000000000000000000000000000000008152600401610bc390611899565b60405180910390fd5b80600160008573ffffffffffffffffffffffffffffffffffffffff1673ffffffffffffffffffffffffffffffffffffffff16815260200190815260200160002060008473ffffffffffffffffffffffffffffffffffffffff1673ffffffffffffffffffffffffffffffffffffffff168152602001908152602001600020819055508173ffffffffffffffffffffffffffffffffffffffff168373ffffffffffffffffffffffffffffffffffffffff167f8c5be1e5ebec7d5bd14f71427d1e84f3dd0314c0f7b2291e5b200ac8c7c3b92583604051610caa91906119f9565b60405180910390a3505050565b6000610cc3848461095b565b90507fffffffffffffffffffffffffffffffffffffffffffffffffffffffffffffffff8114610d3d5781811015610d2f576040517f08c379a0000000000000000000000000000000000000000000000000000000008152600401610d26906118b9565b60405180910390fd5b610d3c8484848403610aec565b5b50505050565b600073ffffffffffffffffffffffffffffffffffffffff168373ffffffffffffffffffffffffffffffffffffffff161415610db3576040517f08c379a0000000000000000000000000000000000000000000000000000000008152600401610daa90611959565b60405180910390fd5b600073ffffffffffffffffffffffffffffffffffffffff168273ffffffffffffffffffffffffffffffffffffffff161415610e23576040517f08c379a0000000000000000000000000000000000000000000000000000000008152600401610e1a90611839565b60405180910390fd5b610e2e8383836113f7565b60008060008573ffffffffffffffffffffffffffffffffffffffff1673ffffffffffffffffffffffffffffffffffffffff16815260200190815260200160002054905081811015610eb4576040517f08c379a0000000000000000000000000000000000000000000000000000000008152600401610eab906118d9565b60405180910390fd5b8181036000808673ffffffffffffffffffffffffffffffffffffffff1673ffffffffffffffffffffffffffffffffffffffff16815260200190815260200160002081905550816000808573ffffffffffffffffffffffffffffffffffffffff1673ffffffffffffffffffffffffffffffffffffffff1681526020019081526020016000206000828254610f479190611a4b565b925050819055508273ffffffffffffffffffffffffffffffffffffffff168473ffffffffffffffffffffffffffffffffffffffff167fddf252ad1be2c89b69c2b068fc378daa952ba7f163c4a11628f55a4df523b3ef84604051610fab91906119f9565b60405180910390a3610fbe8484846113fc565b50505050565b60008183610fd29190611a4b565b905092915050565b600073ffffffffffffffffffffffffffffffffffffffff168273ffffffffffffffffffffffffffffffffffffffff16141561104a576040517f08c379a0000000000000000000000000000000000000000000000000000000008152600401611041906119d9565b60405180910390fd5b611056600083836113f7565b80600260008282546110689190611a4b565b92505081905550806000808473ffffffffffffffffffffffffffffffffffffffff1673ffffffffffffffffffffffffffffffffffffffff16815260200190815260200160002060008282546110bd9190611a4b565b925050819055508173ffffffffffffffffffffffffffffffffffffffff16600073ffffffffffffffffffffffffffffffffffffffff167fddf252ad1be2c89b69c2b068fc378daa952ba7f163c4a11628f55a4df523b3ef8360405161112291906119f9565b60405180910390a3611136600083836113fc565b5050565b600073ffffffffffffffffffffffffffffffffffffffff168273ffffffffffffffffffffffffffffffffffffffff1614156111aa576040517f08c379a00000000000000000000000000000000000000000000000000000000081526004016111a190611939565b60405180910390fd5b6111b6826000836113f7565b60008060008473ffffffffffffffffffffffffffffffffffffffff1673ffffffffffffffffffffffffffffffffffffffff1681526020019081526020016000205490508181101561123c576040517f08c379a000000000000000000000000000000000000000000000000000000000815260040161123390611859565b60405180910390fd5b8181036000808573ffffffffffffffffffffffffffffffffffffffff1673ffffffffffffffffffffffffffffffffffffffff1681526020019081526020016000208190555081600260008282546112939190611afb565b92505081905550600073ffffffffffffffffffffffffffffffffffffffff168373ffffffffffffffffffffffffffffffffffffffff167fddf252ad1be2c89b69c2b068fc378daa952ba7f163c4a11628f55a4df523b3ef846040516112f891906119f9565b60405180910390a361130c836000846113fc565b505050565b6000600560009054906101000a900473ffffffffffffffffffffffffffffffffffffffff16905081600560006101000a81548173ffffffffffffffffffffffffffffffffffffffff021916908373ffffffffffffffffffffffffffffffffffffffff1602179055508173ffffffffffffffffffffffffffffffffffffffff168173ffffffffffffffffffffffffffffffffffffffff167f8be0079c531659141344cd1fd0a4f28419497f9722a3daafe3b4186f6b6457e060405160405180910390a35050565b6113e9826113e3610ae4565b83610cb7565b6113f3828261113a565b5050565b505050565b505050565b60008135905061141081611fec565b92915050565b60008135905061142581612003565b92915050565b60008135905061143a8161201a565b92915050565b60006020828403121561145257600080fd5b600061146084828501611401565b91505092915050565b6000806040838503121561147c57600080fd5b600061148a85828601611401565b925050602061149b85828601611401565b9150509250929050565b6000806000606084860312156114ba57600080fd5b60006114c886828701611401565b93505060206114d986828701611401565b92505060406114ea8682870161142b565b9150509250925092565b6000806040838503121561150757600080fd5b600061151585828601611401565b92505060206115268582860161142b565b9150509250929050565b60006020828403121561154257600080fd5b600061155084828501611416565b91505092915050565b60006020828403121561156b57600080fd5b60006115798482850161142b565b91505092915050565b61158b81611b2f565b82525050565b61159a81611b41565b82525050565b60006115ab82611a2f565b6115b58185611a3a565b93506115c5818560208601611b84565b6115ce81611c47565b840191505092915050565b60006115e6602383611a3a565b91506115f182611c58565b604082019050919050565b6000611609602283611a3a565b915061161482611ca7565b604082019050919050565b600061162c602683611a3a565b915061163782611cf6565b604082019050919050565b600061164f602283611a3a565b915061165a82611d45565b604082019050919050565b6000611672601d83611a3a565b915061167d82611d94565b602082019050919050565b6000611695602683611a3a565b91506116a082611dbd565b604082019050919050565b60006116b8601483611a3a565b91506116c382611e0c565b602082019050919050565b60006116db602083611a3a565b91506116e682611e35565b602082019050919050565b60006116fe602183611a3a565b915061170982611e5e565b604082019050919050565b6000611721602583611a3a565b915061172c82611ead565b604082019050919050565b6000611744602483611a3a565b915061174f82611efc565b604082019050919050565b6000611767601483611a3a565b915061177282611f4b565b602082019050919050565b600061178a602583611a3a565b915061179582611f74565b604082019050919050565b60006117ad601f83611a3a565b91506117b882611fc3565b602082019050919050565b6117cc81611b6d565b82525050565b6117db81611b77565b82525050565b60006020820190506117f66000830184611582565b92915050565b60006020820190506118116000830184611591565b92915050565b6000602082019050818103600083015261183181846115a0565b905092915050565b60006020820190508181036000830152611852816115d9565b9050919050565b60006020820190508181036000830152611872816115fc565b9050919050565b600060208201905081810360008301526118928161161f565b9050919050565b600060208201905081810360008301526118b281611642565b9050919050565b600060208201905081810360008301526118d281611665565b9050919050565b600060208201905081810360008301526118f281611688565b9050919050565b60006020820190508181036000830152611912816116ab565b9050919050565b60006020820190508181036000830152611932816116ce565b9050919050565b60006020820190508181036000830152611952816116f1565b9050919050565b6000602082019050818103600083015261197281611714565b9050919050565b6000602082019050818103600083015261199281611737565b9050919050565b600060208201905081810360008301526119b28161175a565b9050919050565b600060208201905081810360008301526119d28161177d565b9050919050565b600060208201905081810360008301526119f2816117a0565b9050919050565b6000602082019050611a0e60008301846117c3565b92915050565b6000602082019050611a2960008301846117d2565b92915050565b600081519050919050565b600082825260208201905092915050565b6000611a5682611b6d565b9150611a6183611b6d565b9250827fffffffffffffffffffffffffffffffffffffffffffffffffffffffffffffffff03821115611a9657611a95611be9565b5b828201905092915050565b6000611aac82611b6d565b9150611ab783611b6d565b9250817fffffffffffffffffffffffffffffffffffffffffffffffffffffffffffffffff0483118215151615611af057611aef611be9565b5b828202905092915050565b6000611b0682611b6d565b9150611b1183611b6d565b925082821015611b2457611b23611be9565b5b828203905092915050565b6000611b3a82611b4d565b9050919050565b60008115159050919050565b600073ffffffffffffffffffffffffffffffffffffffff82169050919050565b6000819050919050565b600060ff82169050919050565b60005b83811015611ba2578082015181840152602081019050611b87565b83811115611bb1576000848401525b50505050565b60006002820490506001821680611bcf57607f821691505b60208210811415611be357611be2611c18565b5b50919050565b7f4e487b7100000000000000000000000000000000000000000000000000000000600052601160045260246000fd5b7f4e487b7100000000000000000000000000000000000000000000000000000000600052602260045260246000fd5b6000601f19601f8301169050919050565b7f45524332303a207472616e7366657220746f20746865207a65726f206164647260008201527f6573730000000000000000000000000000000000000000000000000000000000602082015250565b7f45524332303a206275726e20616d6f756e7420657863656564732062616c616e60008201527f6365000000000000000000000000000000000000000000000000000000000000602082015250565b7f4f776e61626c653a206e6577206f776e657220697320746865207a65726f206160008201527f6464726573730000000000000000000000000000000000000000000000000000602082015250565b7f45524332303a20617070726f766520746f20746865207a65726f20616464726560008201527f7373000000000000000000000000000000000000000000000000000000000000602082015250565b7f45524332303a20696e73756666696369656e7420616c6c6f77616e6365000000600082015250565b7f45524332303a207472616e7366657220616d6f756e742065786365656473206260008201527f616c616e63650000000000000000000000000000000000000000000000000000602082015250565b7f4d6178696d756d537570706c7952656163686564000000000000000000000000600082015250565b7f4f776e61626c653a2063616c6c6572206973206e6f7420746865206f776e6572600082015250565b7f45524332303a206275726e2066726f6d20746865207a65726f2061646472657360008201527f7300000000000000000000000000000000000000000000000000000000000000602082015250565b7f45524332303a207472616e736665722066726f6d20746865207a65726f20616460008201527f6472657373000000000000000000000000000000000000000000000000000000602082015250565b7f45524332303a20617070726f76652066726f6d20746865207a65726f2061646460008201527f7265737300000000000000000000000000000000000000000000000000000000602082015250565b7f436f6e7472616374206973206e6f74206f70656e000000000000000000000000600082015250565b7f45524332303a2064656372656173656420616c6c6f77616e63652062656c6f7760008201527f207a65726f000000000000000000000000000000000000000000000000000000602082015250565b7f45524332303a206d696e7420746f20746865207a65726f206164647265737300600082015250565b611ff581611b2f565b811461200057600080fd5b50565b61200c81611b41565b811461201757600080fd5b50565b61202381611b6d565b811461202e57600080fd5b5056fea2646970667358221220e223c16cf3d31cc6eedbdefb77c238dae9914e38f713f55a1e1092d6d876329164736f6c63430008040033",
  "linkReferences": {},
  "deployedLinkReferences": {}
}