{
  "_format": "hh-sol-artifact-1",
  "contractName": "Module",
  "sourceName": "contracts/Module.sol",
  "abi": [
    {
      "inputs": [
        {
          "internalType": "uint256",
          "name": "_data",
          "type": "uint256"
        },
        {
          "internalType": "uint256",
          "name": "id",
          "type": "uint256"
        }
      ],
      "name": "setData",
      "outputs": [],
      "stateMutability": "nonpayable",
      "type": "function"
    }
  ],
  "bytecode": "0x608060405234801561001057600080fd5b5061014f806100206000396000f3fe608060405234801561001057600080fd5b506004361061002b5760003560e01c80634848b1a514610030575b600080fd5b61004a600480360381019061004591906100bc565b61004c565b005b60405180602001604052808381525060008260648110610095577f4e487b7100000000000000000000000000000000000000000000000000000000600052603260045260246000fd5b01600082015181600001559050505050565b6000813590506100b681610102565b92915050565b600080604083850312156100cf57600080fd5b60006100dd858286016100a7565b92505060206100ee858286016100a7565b9150509250929050565b6000819050919050565b61010b816100f8565b811461011657600080fd5b5056fea26469706673582212202e8fa9c810c4d3a4511a35c16f7a2e284915748bf1d4629a24e1fd108a5bd23d64736f6c63430008040033",
  "linkReferences": {},
  "deployedLinkReferences": {}
}