{
  "_format": "hh-sol-artifact-1",
  "contractName": "Diamond",
  "sourceName": "contracts/Diamond.sol",
  "abi": [
    {
      "inputs": [
        {
          "internalType": "address",
          "name": "_moduleAddr",
          "type": "address"
        }
      ],
      "stateMutability": "nonpayable",
      "type": "constructor"
    },
    {
      "inputs": [
        {
          "internalType": "uint256",
          "name": "",
          "type": "uint256"
        }
      ],
      "name": "ds",
      "outputs": [
        {
          "internalType": "uint256",
          "name": "digit",
          "type": "uint256"
        }
      ],
      "stateMutability": "view",
      "type": "function"
    },
    {
      "inputs": [
        {
          "internalType": "uint256",
          "name": "id",
          "type": "uint256"
        }
      ],
      "name": "getData",
      "outputs": [
        {
          "internalType": "uint256",
          "name": "",
          "type": "uint256"
        }
      ],
      "stateMutability": "view",
      "type": "function"
    },
    {
      "inputs": [],
      "name": "getDataLength",
      "outputs": [
        {
          "internalType": "uint256",
          "name": "",
          "type": "uint256"
        }
      ],
      "stateMutability": "view",
      "type": "function"
    },
    {
      "inputs": [],
      "name": "moduleAddress",
      "outputs": [
        {
          "internalType": "address",
          "name": "",
          "type": "address"
        }
      ],
      "stateMutability": "view",
      "type": "function"
    },
    {
      "inputs": [
        {
          "internalType": "uint256",
          "name": "_data",
          "type": "uint256"
        },
        {
          "internalType": "uint256",
          "name": "id",
          "type": "uint256"
        }
      ],
      "name": "setD",
      "outputs": [],
      "stateMutability": "nonpayable",
      "type": "function"
    }
  ],
  "bytecode": "0x608060405234801561001057600080fd5b506040516105ef3803806105ef8339818101604052810190610032919061008e565b80606460006101000a81548173ffffffffffffffffffffffffffffffffffffffff021916908373ffffffffffffffffffffffffffffffffffffffff16021790555050610100565b600081519050610088816100e9565b92915050565b6000602082840312156100a057600080fd5b60006100ae84828501610079565b91505092915050565b60006100c2826100c9565b9050919050565b600073ffffffffffffffffffffffffffffffffffffffff82169050919050565b6100f2816100b7565b81146100fd57600080fd5b50565b6104e08061010f6000396000f3fe608060405234801561001057600080fd5b50600436106100575760003560e01c80630178fe3f1461005c57806335b2bd2d1461008c5780633da76788146100aa5780636ca1e01e146100c8578063e7af767e146100e4575b600080fd5b610076600480360381019061007191906102e4565b610114565b60405161008391906103ca565b60405180910390f35b61009461015b565b6040516100a191906103af565b60405180910390f35b6100b2610181565b6040516100bf91906103ca565b60405180910390f35b6100e260048036038101906100dd919061030d565b61018a565b005b6100fe60048036038101906100f991906102e4565b6102ae565b60405161010b91906103ca565b60405180910390f35b600080826064811061014f577f4e487b7100000000000000000000000000000000000000000000000000000000600052603260045260246000fd5b01600001549050919050565b606460009054906101000a900473ffffffffffffffffffffffffffffffffffffffff1681565b60006064905090565b600080606460009054906101000a900473ffffffffffffffffffffffffffffffffffffffff1673ffffffffffffffffffffffffffffffffffffffff1684846040516024016101d99291906103e5565b6040516020818303038152906040527f4848b1a5000000000000000000000000000000000000000000000000000000007bffffffffffffffffffffffffffffffffffffffffffffffffffffffff19166020820180517bffffffffffffffffffffffffffffffffffffffffffffffffffffffff83818316178352505050506040516102639190610398565b600060405180830381855af49150503d806000811461029e576040519150601f19603f3d011682016040523d82523d6000602084013e6102a3565b606091505b509150915050505050565b600081606481106102be57600080fd5b016000915090508060000154905081565b6000813590506102de81610493565b92915050565b6000602082840312156102f657600080fd5b6000610304848285016102cf565b91505092915050565b6000806040838503121561032057600080fd5b600061032e858286016102cf565b925050602061033f858286016102cf565b9150509250929050565b61035281610424565b82525050565b60006103638261040e565b61036d8185610419565b935061037d818560208601610460565b80840191505092915050565b61039281610456565b82525050565b60006103a48284610358565b915081905092915050565b60006020820190506103c46000830184610349565b92915050565b60006020820190506103df6000830184610389565b92915050565b60006040820190506103fa6000830185610389565b6104076020830184610389565b9392505050565b600081519050919050565b600081905092915050565b600061042f82610436565b9050919050565b600073ffffffffffffffffffffffffffffffffffffffff82169050919050565b6000819050919050565b60005b8381101561047e578082015181840152602081019050610463565b8381111561048d576000848401525b50505050565b61049c81610456565b81146104a757600080fd5b5056fea26469706673582212209288b4c97d6bbc1be2f4c859dbcc5b0e2ac59c9ecfdc2f84dc23fdb91dfe493064736f6c63430008040033",
  "linkReferences": {},
  "deployedLinkReferences": {}
}